:03000000020006F5
:03005F0002000399
:0300030002006296
:100062001200E21201549001FF75F08012018375B3
:1000720082C012013790021075F0801201837582DE
:100082000E1201377E007F00C3EE9410EF6480945D
:1000920080501B900032C007C0061200E57582181E
:1000A200120137D006D0070EBE00DD0F80DA7E00C7
:1000B2007F00C3EE9410EF64809480501B90003256
:1000C200C007C0061200E575821C120137D006D0A7
:1000D200070EBE00DD0F80DA90012C1200E580A42D
:1000E200D2A522AE82AF837C007D007A007B00C362
:1000F200EA9EEB64808FF063F08095F050070ABAB5
:1001020000ED0B80EA0CBC00010DC3EC94E8ED6439
:1001120080948340D622AE82AF837C007D00C3EC04
:100122009EED64808FF063F08095F050070CBC0068
:10013200ED0D80EA22858280C2A6C2A5D2A79000D8
:1001420064120118C2A712014ED2A72290006402C3
:10015200011875823812013775820E1201377582C5
:1001620001120137758280020137858280D2A6C2D0
:10017200A5D2A790000A120118C2A712014ED2A757
:1001820022AD82AE83AFF0C007C006C0051201C720
:10019200AB82AC83D005D006D007EB60278D828E70
:1001A200838FF01201DFFCA3AD82AE838C82C00785
:1001B200C006C005C00312016CD003D005D006D022
:0501C200071B80D6229E
:1001FF0048656C6C6F20456C697465636820363593
:10020F00002A2A2A2A2A2A2A2A2A2A2A2A2A2A2A69
:02021F002A00B3
:06003500E478FFF6D8FD9F
:100013007900E94400601B7A00900221780175A001
:1000230000E493F2A308B8000205A0D9F4DAF2754C
:02003300A0FF2C
:10003B007800E84400600A790175A000E4F309D860
:10004B00FC7800E84400600C7900900001E4F0A318
:04005B00D8FCD9FAFA
:1001C700AA82AB831201DF6003A380F8C3E5829A9A
:0801D700F582E5839BF583220C
:0D0006007581071201FBE582600302000313
:1001DF0020F71430F6148883A88220F507E6A88349
:1001EF0075830022E280F7E49322E02275820022D9
:00000001FF
