:060000000200090200A24B
:0300620002000693
:030006000200985D
:10006500AE82AF837C007D007A007B00C3EA9EEB05
:1000750064808FF063F08095F050070ABA00ED0BAD
:1000850080EA0CBC00010DC3EC943CED64809480C7
:1000950040D622D288D2A8D2AFD2B280FEB2A03248
:06003800E478FFF6D8FD9C
:100016007900E94400601B7A009000A9780175A078
:1000260000E493F2A308B8000205A0D9F4DAF27549
:02003600A0FF29
:10003E007800E84400600A790175A000E4F309D85D
:10004E00FC7800E84400600C7900900001E4F0A315
:04005E00D8FCD9FAF7
:0D0009007581071200A5E582600302000664
:0400A500758200223E
:00000001FF
