:0400000002001932AF
:03000B000200D11F
:030013000200F2F6
:0300720002001673
:0300160002007570
:10007500E4F508F509F512F580758902758C19F511
:100085008AD28A75A886C28DD28CD2A7E51225E0C0
:10009500240AF9870609870719C3EE9420EF6480BF
:1000A5009483501774FE25125011C2A7E51225E05E
:1000B500FF240AF876E808760380D1C3E50894D0D2
:1000C500E5096480948740C4D2A780C0C0E0C0071A
:1000D500C006C0D075D000AE08AF0974012EF50872
:1000E500E43FF509D0D0D006D007D0E032C0E0C05B
:1000F50007C000C0D075D000C2AAE51204F512E50C
:100105001224FC5003751203E51225E0240AF8A613
:100115000808A609E4F508F509D2AAD0D0D000D080
:0401250007D0E032ED
:06004800E478FFF6D8FD8C
:100026007900E94400601B7A0090012D780175A0E3
:1000360000E493F2A308B8000205A0D9F4DAF27539
:02004600A0FF19
:10004E007800E84400600A790175A000E4F309D84D
:10005E00FC7800E84400600C7900900001E4F0A305
:04006E00D8FCD9FAE7
:0D001900758112120129E5826003020016B4
:0401290075820022B9
:00000001FF
