:0600000002001902014597
:03000B000201707F
:0300130002015A8D
:0300720002001673
:030016000201A143
:10007500AF82BF0A005007EF90029493F58022AE3D
:1000850082AF837C007D007A007B00C3EA9EEB642F
:10009500808FF063F08095F050070ABA00ED0B8071
:1000A500EA0CBC00010DC3EC9464ED6480948040BF
:1000B500D62222AF827E008F047D00750C0A8D0D3D
:1000C5008C828D83C006C005C004120222AA82D08C
:1000D50004D005750C0A750D008C828D83C0021243
:1000E5000258AC82D002D0068C07EE540124FF9250
:1000F500A2EE03540124FF92A3EE0303540124FF4F
:1001050092A48A82C007C0061200759000011200F1
:1001150084D006D0070EBE0300409C22D2B2D2A8DE
:10012500D288D2AFD2AAD28A22E4F508F509F580A1
:10013500758901758C4CF58A75A882C28DD28C2281
:10014500C0E0C0D0C2AF0508E4B508020509D2AFCA
:10015500D0D0D0E032C0E0C0D0C2AF150874FFB532
:1001650008021509D2AFD0D0D0E032C0E0C0D075BA
:100175008C4C758A00050AE4B50A02050B7414B5A2
:100185000A06E4B50B028002800D0508E4B50802F5
:100195000509E4F50AF50BD0D0D0E03212012E8521
:0701A50008821200B880F887
:0A0294003F065B4F666D7D077F6F2C
:06004800E478FFF6D8FD8C
:100026007900E94400601B7A0090029E780175A071
:1000360000E493F2A308B8000205A0D9F4DAF27539
:02004600A0FF19
:1001AC00E50C450D60467A01E50C25E0F50CE50DF6
:1001BC00334012F50DE582950CE583950D40030A4D
:1001CC0080E6C3E50D13F50DE50C13F50CC3E582C4
:1001DC00950CF5F0E583950D4005F58385F082C30C
:0D01EC00E50D13F50DE50C13F50CDAE1221D
:10004E007800E84400600A790175A000E4F309D84D
:10005E00FC7800E84400600C7900900001E4F0A305
:04006E00D8FCD9FAE7
:1001F9007A10E4FBFCE58225E0F582E58333F5839B
:10020900EB33FBEC33FCEB950CF5F0EC950D40066C
:09021900FCABF0438201DADD22A6
:0D00190075810D120290E582600302001651
:10022200C2D5E58330E70DD2D5E4C39582F582E4E9
:100232009583F583E50D30E70BE4C3950CF50CE4EB
:10024200950DF50D1201AC30D50BE4C39582F58204
:10025200E49583F58322C2D5E58330E70DD2D5E458
:10026200C39582F582E49583F583E50D30E70DB2FF
:10027200D5E4C3950CF50CE4950DF50D1201F9309A
:10028200D50BE4C39582F582E49583F583227582CA
:02029200002248
:00000001FF
