:0400000002001132B7
:03000B000200856B
:03006A0002000E83
:03000E0002006D80
:10006D00E4F508F509F580758901758C4CF58A75EF
:10007D00A882C28DD28C80FE758C4C758A00B2A080
:01008D003240
:06004000E478FFF6D8FD94
:10001E007900E94400601B7A00900092780175A087
:10002E0000E493F2A308B8000205A0D9F4DAF27541
:02003E00A0FF21
:100046007800E84400600A790175A000E4F309D855
:10005600FC7800E84400600C7900900001E4F0A30D
:04006600D8FCD9FAEF
:0D00110075810912008EE582600302000E69
:04008E007582002255
:00000001FF
