:20006200AE82AF837C007D00C3EC9EED9F50147A7D7B001ABAFF011BEA4B70F70CBC00E839
:200082000D80E522AF828F061FEE70FA22D2B775820A120086C2B7758296120086D2B775AD
:2000A20082140200867F007E08C2B7EFC313FFD2B730B703430780758214C007C0061200F7
:2000C20086D006D007DEE28F8222AF827E08C2B7EF540124FF92B730B710758203C007C0A0
:2000E20006120086D006D007800E758214C007C006120086D006D007D2B7EFC313FFDECE4F
:200102002212008F7582CC1200CC7582441200CC75820A12008612008F7582CC1200CC7510
:2001220082BE1200CC75820A1200861200A7AF82C0071200A7AE82D0078E05E4FEFCEF2E07
:17014200FEEC3DC4CEC4540F6ECE540FCE6ECE30E30244F08E8222A2
:03000000020006F5
:03005F0002000399
:030003000201599E
:200159001201D6120248120103AF82D2907E00C007C006740CC0E0740BC0E07480C0E07446
:2001790008C0E07400C0E07440C0E0120368E58124F8F58190000875F040120277120248BD
:20019900120103AF827E00C007C006740CC0E0740BC0E07480C0E07408C0E07400C0E0747D
:2001B90040C0E0120368E58124F8F58190000875F0401202779000961201D980C0D2A5221E
:2001D900AE82AF837C007D007A007B00C3EA9EEB64808FF063F08095F050070ABA00ED0BB2
:2001F90080EA0CBC00010DC3EC94E8ED6480948340D622AE82AF837C007D00C3EC9EED6462
:20021900808FF063F08095F050070CBC00ED0D80EA22858280C2A6C2A5D2A79000641202F2
:200239000CC2A7120242D2A72290006402020C75823812022B75820E12022B75820112027D
:200259002B75828002022B858280D2A6C2A5D2A790000A12020CC2A7120242D2A722AD8292
:20027900AE83AFF0C007C006C005120AB9AB82AC83D005D006D007EB60278D828E838FF07F
:20029900120AD1FCA3AD82AE838C82C007C006C005C003120260D003D005D006D0071B80D2
:0202B900D6224B
:100B0C0054656D70657261747572653A2025640068
:06003500E478FFF6D8FD9F
:200013007900E94400601B7A00900B27780175A000E493F2A308B8000205A0D9F4DAF27561
:02003300A0FF2C
:20003B007800E84400600A790175A000E4F309D8FC7800E84400600C7900900001E4F0A3C3
:04005B00D8FCD9FAFA
:2002BB00C01F85811FC082058105810581E51F24FBF8A91F0909E6F708E609F708E609F79D
:2002DB00A81F080886820886830886F0120AD1FAA3120AD1FBA3120AD1FF74012AFCE43BDA
:2002FB00FD8F06A81F080886820886830886F0EC120AF1A3ED120AF1A3EE120AF18A828B18
:20031B00838FF0A81F08E6120AF1851F81D01F2285821C85831D85F01E752D1C752E007517
:20033B002F40851830851931851A32851B339002BB12044EAE82AF83AB1CAC1DAD1E8B8278
:20035B008C838DF0E4120AF18E828F8322C01FE581F51F24F8FF8F33E51F24FBFF8F2D7538
:20037B002E00752F40E51F24F8F886300886310886329002BB12044EAE82AF83E51F24FBCD
:1A039B00F886030886040886058B828C838DF0E4120AF18E828F83D01F22E5
:2003B500AF82C023C024C0251203C28007C021C0228F8222158115811581052BE4B52B023F
:2003D500052C22AF8274302FFF24C6500B74072FFFE52060034307208F820203B5E582FFC1
:2003F500C4540FF582C0071203D8D007740F5FF5820203D885824EAB26AC27AD28AE29AA3A
:200415002A7550208A07EF2FF54FEE235401454FFAEB2BFBEC33FCED33FDEE33FEC3EA9527
:200435004E4008EAC3954EFA430301D550D68B268C278D288E298A2A2285822185832285C8
:200455002D23852E24852F25E4F52BF52CAD30AE31AF328D828E838FF0120AD1FC74012D9B
:20047500F530E43EF5318F32ECFF7003020A95BF25028003020A8DE4F534F535F536F537AA
:20049500F538F539F53AF53BF53DF54AF54B753EFF753FFF8530448531458532468544823B
:2004B5008545838546F0120AD1F547A38582448583458544308545318546327425B547082D
:2004D5008547821203B5808574D025475068E54724C6406274FFB53E36B53F33854A4E8565
:2004F5004B4F90000A120A9C858248858349AA477E00EA2548FAEE3549FEEA24D0F54AEE26
:2005150034FFF54BE54A454B7093753501808E853E4E853F4F90000A120A9CAE82AB83AA5A
:20053500477D00EA2EFEED3BFBEE24D0F53EEB34FFF53F0204B2742EB5471574FFB53E056C
:20055500B53F0280030204B2E4F53EF53F0204B2749F2547500EE547248540085347DF756A
:20057500200180037520007420B54703020618742BB54703020612742DB547028079744274
:20059500B5470302061E7443B5470302062A7444B547030207AE7446B547030207C5744888
:2005B500B547030204B27449B547030207AE744AB547030204B2744CB547028052744FB57F
:2005D50047030207B67450B547030207437453B5470280627454B547030204B27455B54703
:2005F500030207BB7458B547030207C0745AB547030204B20207CA7534010204B275360125
:200615000204B27537010204B27539010204B2753A010204B2E539600AE53314F9893387E9
:2006350006800BE53324FEFB8B338B0187068E821203B50207D8E53324FDFE8E338E01873F
:200655000209870309870619198A268B278E288A828B838EF0120AB985824485834574FF98
:20067500B53E09B53F0685443E85453FE5347037C3E544954AE545954B502CE54AC3954483
:20069500F548E54B9545F549AA48AE49154874FFB548021549EA4E60087582201203B580A9
:2006B500E785484A85494BAB3EAE3F8526828527838528F0120AD1FA8A426034C3E49B7442
:2006D500808EF063F08095F050261BBBFF011E854282C006C0031203B5D003D006AA26AC84
:2006F50027AD280ABA00010C8A268C278D2880BBE53470030207D8C3E544954AE545954B83
:2007150040030207D8E54AC39544F548E54B9545F549AA48AE49154874FFB548021549EA50
:200735004E70030207D27582201203B580E4E53324FDFE8E338E0187020987030987061971
:20075500198A268B278E28AE28BE800040047B438014BE600040047B50800BBE40004004AF
:200775007B4980027B588B82C0031203B575823A1203B57582301203B57582781203B5D0BC
:2007950003BB4902800BBB500280068527821203F28526821203F2802A753801753D0A8020
:2007B50022753D08801D753D0A8018753D108013753B01800E8547821203B5800685484A0E
:2007D50085494BE53B6060E53324FCFE8E338E01874A09874B09874C09874D191919854A06
:2007F50026854B27854C28854D2975261C75270B75288085264A85274B85284C7401254A8F
:20081500FAE4354BFBAE4C8A268B278E28854A82854B83854CF0120AD1FEFB700302046232
:200835008B821203B580CCE53D7003020462E539602BE53314F9893387068E027B007D00E4
:200855007E008A268B278D288E29E5387064AA26FBFDFE8A268B278D288E298055E53A605E
:2008750021E53324FCFE8E338E0187020987030987050987061919198A268B278D288E295C
:200895008030E53324FEFE8E338E01870309870619EEFA3395E0FDFE8B268A278D288E2979
:2008B500E538700EAA26AB27FDFE8A268B278D288E29E5386023E52930E71BC3E49526FBE0
:2008D500E49527FCE49528FDE49529FE8B268C278D288E298003753800753C0179567D002B
:2008F5007E00752A00853D82C006C005C001120409D001D005D006E53C7014E52AC454F0DF
:20091500FCE52AC4540F4204E7FB4CF7198002A72A0DBD00010EE53CB40100E433F53CE5DD
:200935002645274528452970B989438D408E41E54A454B7005754A01F54BE535702DE534A0
:200955007029AA4AAB4BAC400C7E00C3EC9AEE9B5015758220C003C0021203B5D002D00347
:200975001ABAFF011B80DF8A4A8B4BE538601175822D1203B5154A74FFB54A02154B802E0D
:20099500E54045416028E536601175822B1203B5154A74FFB54A02154B8013E537600F75D1
:2009B50082201203B5154A74FFB54A02154BE5347033AD4AAE4B8D038E041DBDFF011EC3FA
:2009D500E5409BE5419C503EE53560067B307C0080047B207C008B82C006C0051203B5D07E
:2009F50005D00680D1C3E540954AE541954B500FE54AC39540F54AE54B9541F54B800BE4CF
:200A1500F54AF54B80048D4A8E4BA943AD40AE418D028E041DBDFF011EEA4C6030E53CB492
:200A35000100E433F53C700A09E7C4540FFC8C2A80078704740F5CF52A852A82C006C00549
:200A5500C0011203D8D001D005D00680C3E5347003020462AD4AAE4B8D038E041DBDFF0134
:200A75001EEB4C7003020462758220C006C0051203B5D005D00680E08F821203B502046277
:070A9500852B82852C8322D2
:0B0B1C003C4E4F20464C4F41543E0021
:1D0A9C00E582854EF0A4C582C0F0854FF0A4D0F025F0C583854EF0A42583F583224A
:180AB900AA82AB83120AD16003A380F8C3E5829AF582E5839BF5832288
:0D000600758156120AEDE5826003020003C9
:1C0AD10020F71430F6148883A88220F507E6A88375830022E280F7E49322E02234
:040AED0075820022EC
:1B0AF10020F71130F6138883A88220F509F6A8837583002280FEF280F5F02204
:00000001FF
